:020000040800F2
:10000000088F0120C9020008D1020008D3020008AD
:10001000D5020008D7020008D9020008000000003D
:100020000000000000000000000000000D020008B9
:10003000DD0200080000000061020008732B0008C8
:10004000E3020008E3020008E3020008E3020008FC
:10005000E3020008E3020008E3020008E3020008EC
:10006000E3020008E3020008E3020008E3020008DC
:10007000E3020008E3020008E3020008E3020008CC
:10008000E3020008E3020008E3020008E3020008BC
:10009000E3020008E3020008E3020008E3020008AC
:1000A000E3020008E3020008E3020008E30200089C
:1000B000E3020008E3020008E3020008E30200088C
:1000C000E3020008E3020008E3020008E30200087C
:1000D000E3020008C5310008E3020008E30200085B
:1000E000E3020008E3020008E3020008E30200085C
:1000F000E3020008E3020008E3020008E30200084C
:10010000E3020008E3020008E3020008E30200083B
:10011000E3020008E3020008812C0008E302000863
:10012000E3020008E30200087D040008E30200087F
:10013000E302000841050008E3020008E3020008AA
:10014000E3020008E3020008E3020008E3020008FB
:10015000E3020008E302000889040008E302000843
:10016000E3020008E3020008E3020008E3020008DB
:10017000E3020008E3020008E302000800000000B8
:10018000E3020008E3020008E3020008E3020008BB
:10019000E3020008E3020008E3020008E3020008AB
:1001A000E3020008E3020008E3020008E30200089B
:1001B000E3020008E3020008E3020008E30200088B
:1001C000E3020008E3020008E3020008E30200087B
:1001D000E3020008E3020008E3020008E30200086B
:1001E000E3020008E3020008E3020008E30200085B
:1001F000E3020008E3020008DFF80CD000F00EF97B
:10020000004800474D620008088F01202B4B1968F9
:100210000868B0E8F04F80F30988BFF36F8F4FF0A4
:10022000000080F311887047000000000648006855
:10023000006880F3088862B661B6BFF34F8FBFF3E2
:100240006F8F00DF00BF00BF08ED00E0DFF80C009B
:10025000016841F470010160704700BF88ED00E063
:10026000EFF30980BFF36F8F144B1A681EF0100F65
:1002700008BF20ED108A20E9F04F106008B44FF05D
:10028000500072B680F31188BFF34F8FBFF36F8FAA
:1002900062B60DF02DFD4FF0000080F3118808BC10
:1002A00019680868B0E8F04F1EF0100F08BFB0ECF6
:1002B000108A80F30988BFF36F8F704754000020C5
:1002C000EFF3058070470000064880470648004766
:1002D000FEE7FEE7FEE7FEE7FEE7FEE7FEE7FEE7F6
:1002E000FEE7FEE72D2C0008F90100082DE9F05F7C
:1002F0000546002092469B46884606468146402495
:100300001BE0284641464746224600F076F8534611
:100310005A46C01A914110D311461846224600F0A1
:100320005DF82D1A67EB01084F4622460120002197
:1003300000F054F817EB00094E41201EA4F101040F
:10034000DFDC484631462A464346BDE8F09F40EA96
:1003500001039B0703D009E008C9121F08C0042A43
:10036000FAD203E011F8013B00F8013B521EF9D22A
:100370007047D2B201E000F8012B491EFBD2704752
:100380000022F6E710B513460A4604461946FFF761
:10039000F0FF204610BD30B504460020034600E0C3
:1003A0005B1C934203D2E05CCD5C401BF8D030BDB7
:1003B00030B50B46014600202022012409E021FA35
:1003C00002F59D4205D303FA02F5491B04FA02F532
:1003D0002844151EA2F10102F1DC30BD202A04DB05
:1003E000203A00FA02F1002070479140C2F1200348
:1003F00020FA03F3194390407047202A04DB203A87
:1004000021FA02F00021704721FA02F3D040C2F134
:10041000200291400843194670470000064C074DE2
:1004200006E0E06840F0010394E8070098471034C4
:10043000AC42F6D3FFF7E4FEC8EA0008E8EA000899
:1004400030B58C1810F8012B12F00F0301D110F801
:10045000013B120906D110F8012B03E010F8015BF3
:1004600001F8015B5B1EF9D101E001F8013B521E6E
:10047000FBD1A142E6D3002030BD0000014800F0CE
:1004800009B90000EC320020014800F003B9000077
:100490004C33002001681823CAB2103AB2FBF3F2C1
:1004A000054B6FF30901032A9B5CC36500D9091D45
:1004B00081650846704700001CE8000810B5836994
:1004C0004FF0C074826A0146002053B1B3F5005F5B
:1004D00015D072B1012A0CD0022A0AD0032A09D100
:1004E00004E01AB1012A06D0022A03D1C96AC9015F
:1004F00000D5012010BDC96AA142FAD010BD002A62
:10050000F7D0012AF2D0022AF3D0032AF3D010BD8B
:1005100038B50446006800F58050816941F48011C7
:100520008161206800F5805080690090012000F012
:10053000F3F92068009900F58050816138BD000012
:10054000014800F0BEBA0000343200202DE9F0412D
:10055000044621B14FF40061C800C4E90201E0691A
:100560000025002862D028462368D4E9021C3A4FAF
:1005700040261A6841EA0C0101433A4041F40070F8
:100580001043186020680768012000F0C5F9206852
:1005900007602068466020684668012000F0BCF9CA
:1005A00020684FF641724660206885602068C5600B
:1005B00021688869104040F0800088612068866961
:1005C000012000F0A9F9206886612068C5612068D3
:1005D000C569012000F0A0F92068204B2049C561C1
:1005E000206800F5805082691A40114381612068BB
:1005F00000F580508569012000F08EF920681949C6
:1006000000F580508561206800F580500160206809
:1006100000F580500568012000F07EF9206800F5A3
:1006200080500560A069012803D009E04FF4806084
:100630009AE720680C4A00F58050C1691143C161F6
:1006400060690A4982880A640278D0F8010042EAA7
:1006500000204864BDE8F0810F8120FF233FDEF8D1
:10066000040020028020C1024000010000800240FE
:1006700090F83510022903D0802141650120704790
:10068000052180F835100068016821F00101016042
:10069000002070472DE9F84304464FF00009644BF1
:1006A0000820CDF800904FF41652A56D94F85C1018
:1006B0001B682E68B3FBF2F700FA01F131420FD04C
:1006C00021680A6852070BD50A6822F004020A6002
:1006D00094F85C108840A860606D40F0010060658F
:1006E00094F85C104FF0010808FA01F0304208D08D
:1006F00021684969090604D5A860606D40F00200D0
:10070000606594F85C1004208840304208D021686D
:100710000968890704D5A860606D40F00400606531
:1007200094F85C1010208840304218D02168096885
:10073000090714D5A86020680168490304D500683A
:10074000000308D5A16C07E00168C90503D401685E
:1007500021F008010160216C09B12046884794F816
:100760005C1020208840304231D021680968C906D9
:100770002DD5A86094F8350005282068016806D0BA
:10078000490347D5006800031DD4616C1CE021F0CB
:10079000160101602068416921F080014161206CEF
:1007A00008B9A06C20B12068016821F0080101603F
:1007B00094F85C303F229A40AA6084F8349084F820
:1007C0003580216D1FE0E16B09B120468847606DDF
:1007D00000282BD0606DC00714D0052084F83500A8
:1007E0002068016821F0010101600098401C009020
:1007F000B84203D820680068C007F6D184F8349066
:1008000084F83580E16C002910D001B02046BDE8A5
:10081000F04308470168C905D5D4036823F01003E5
:10082000036084F8349084F83580CCE7BDE8F88321
:100830002C0000202DE9F047044600F003FD05469A
:1008400064B14FF0000984F83490022184F8351027
:100850002068016821F0010101600EE00120BDE87F
:10086000F08700BF00F0EEFC401B052805D92021D1
:100870006165032084F83500F1E720680068C0074F
:10088000F0D1D4E90020D4E90251D4E9043C284352
:1008900004F1180519430843116895E8E00140EA9E
:1008A0000C001C4B2843194040EA060040EA0700B0
:1008B000B8F1040F40EA010003D1D4E90B13194346
:1008C0000843106020680126656A4069042D20F005
:1008D000070045EA00050CD1D4E90A01054341B1FE
:1008E0002046FFF7EBFD20B14020606584F83560BD
:1008F000B4E7206845612046FFF7CCFD94F85C30F2
:100900003F229A408260C4F8549084F835600020F9
:10091000A5E700003F8010E070B5044600F092FCAF
:100920000546601C02D004480078044400F08AFCAC
:10093000401BA042FAD370BD200000202DE9F043F7
:1009400090F845400025012C0DD04FF0010980F8AA
:100950004590022644F2F45780F844605E1E4FF042
:10096000004C816217E00220BDE8F083C5EBC5189A
:1009700001EB451408EB480802EB8808C4F800C0F6
:10098000B542C4E9017804D204F12008C4F80C800F
:1009900000E0E1606D1C9D42E8D30368002403F58C
:1009A0008053D96080F8449080F845402046DBE7CA
:1009B0002DE9F04390F8454091460022012C09D0E2
:1009C000C1620126022480F845605D1E80F8444023
:1009D000E70422E00220BDE8F08300BFC2EBC214AE
:1009E00004EB440801EB421409EB880C2760C4F8BF
:1009F00008C0D0F81CC0BCF1000F05D1D4F800C06D
:100A00004CF4400CC4F800C0AA4204D204F1200CFB
:100A1000C4F80CC000E0E160521C9A42DED30268C8
:100A2000002302F58052116180F8446080F845305F
:100A30001846D0E7704730B590F8451000230129DB
:100A400008D0012280F84520022180F84410816AF4
:100A500000241AE0022030BD0D685B1CC5F301259F
:100A6000022D0AD00D6815F4407F09D0836B5B1C02
:100A7000012BC0E90D1313D013E08263016302E080
:100A8000856B6D1C8563C96881620D68002D01DB73
:100A9000042BE1D380F8442080F84540012030BD8C
:100AA00001630B68C3F30D431B1FC363036B9B6898
:100AB0000364C968816280F8442080F845400020C2
:100AC00030BD70B504460068002500F58050012651
:100AD0004169490608D5204600F0B8F92068402150
:100AE00000F58050416109E04069C0070AD0204606
:100AF00000F07DFA206800F58050466184F844607B
:100B000084F845504FF48031206800F580504161F1
:100B1000206800F58050406900040CD52046FFF79E
:100B200089FF20684FF4004100F58050416184F84E
:100B3000446084F8455070BD2DE9FC474FF0000635
:100B40000400B146009603D094F8440018B107E0C1
:100B50000120BDE8FC87204684F8456000F0E4F8F9
:100B60006748016841F480410160006800F48040FA
:100B700001906448016821F4000101600168226A63
:100B800011430160206800F58050016841F00101C7
:100B9000016000F057FB4FF4FA77054609E000BF0B
:100BA00000F050FB401BB84203D9032084F84400F6
:100BB0006AE0206800F580500068C007F0D1206826
:100BC000006920F01C0500F065FF4F4A4F490244C0
:100BD0008A4202D245F0080516E04D494D4A0144CB
:100BE000914202D245F00C050EE04B4A4B490244BB
:100BF0008A4209D34A4A4B491044884202D245F0FE
:100C0000040501E045F010052068056100214FF45E
:100C10000042204600F0ECF94FF00105C0BB40F661
:100C2000FF773846FFF778FE606890B300F00AFB64
:100C3000804641F2883701216A46204600F0C2F81A
:100C400000F000FBA0EB0800B84217D8009840075E
:100C5000F1D5002120464FF4805200F0C9F9B8B90F
:100C600000F0F0FA80466A460121204600F0AAF81A
:100C700000F0E8FAA0EB0800B8420BD901212046A9
:100C8000FFF764FC84F84450032084F8456060E773
:100C900024E018E000988006E5D510216A46204639
:100CA00000F090F8D0B90098410703D54FF40061E7
:100CB000E16000E0E660800701D5A66018E04FF42F
:100CC0008040A06014E0D4E90210C00840EA51005E
:100CD00082B22046002100F08BF930B1012120467C
:100CE000FFF734FC84F8445032E73846FFF714FE2F
:100CF00049462046FFF72AFC84F84450002028E7A4
:100D0000443802400438014000D3CEFEC0E1E40084
:100D100040F1E9FD40787D0100796CFC005A6202E7
:100D2000001F0AFA80F0FA02F0B5006887B0204987
:100D300088423AD11F48016841F0007101600168A2
:100D400001F000710591016841F080610160016866
:100D500001F080610591016841F000610160006867
:100D600002240025694600F00060059003260B2749
:100D70004FF4D0408DE8F1000F4800F077F93220B1
:100D800069468DE8F1000D4800F070F9862069464B
:100D90008DE8F1000A4800F069F9002205213D20A4
:100DA00000F0F2FA3D2000F0E3FA07B0F0BD0000D9
:100DB0000080024030380240001802400008024023
:100DC000000002402DE9F047044690F844009146A7
:100DD00082281DD082224FF6FF7084F844204FF401
:100DE000F863226803EA8111258A136900EAC520A5
:100DF00003F01C031843014321F0020040F00105F9
:100E0000156100F01FFA012706464FF4803811E003
:100E10000220BDE8F08700BF00F014FA801B4045B7
:100E200006D3002084F8447084F845000320F0E7DE
:100E300020680569E807EFD12068406981B2C9F8E8
:100E4000001084F844700020E3E7000001480068C7
:100E500006F0C2BB1C000020F8B5044690F845001F
:100E6000012839D0012584F84550022084F8440037
:100E700020680026016841F00801016020680068D0
:100E800000902846FFF748FD216800980860206818
:100E9000016841F0040101602068006800900120B1
:100EA000FFF73AFD2168009808602046FFF730FB05
:100EB000206800F58050816941F40051816120680B
:100EC00000F58050816941F00201816184F844504D
:100ED000002084F84560F8BD0220F8BDF0B590F818
:100EE00045200023012A13D0012680F84560022204
:100EF00080F844204FF0000561B1C76A3A68002AC3
:100F00000BDA122180F8441080F845500120F0BD22
:100F10000220F0BD80F84460F6E740F2F454A142AC
:100F20000BD9B1FBF4F204FB121CB1FBF4F2BCF1DF
:100F3000000F00D0521C012A45D13A68C1F30C01C0
:100F400042F040523A60C26A5160C16A0A6842F097
:100F500000420A60C16AC968C16236E0D7F800C0C1
:100F60002CF0405CC7F800C033B9C76AD7F800C09E
:100F70004CF0805CC7F800C0D0F82CC0571EBB42B4
:100F8000CCF8044014D1C76AC2F1010ED7F800C0F2
:100F9000CEEBCE1E4CF0005CC7F800C00EEB4E0E40
:100FA000D0F82CC001EB8E07C7F30C07CCF8047007
:100FB000C76AD7F800C04CF0004CC7F800C0C76A39
:100FC0005B1CFF68C7629342C8D3016801F580517A
:100FD0004A69520705D504224A61016801F580512A
:100FE0004D6080F8446080F845500020F0BD7047A7
:100FF0002DE9F041044690F8440042281ED04220DA
:101000004FF6FF7384F8440096B220684FF4F867F7
:10101000258A07EA81110269466103EAC52023682F
:1010200002F01C021043014341F003051D6100F072
:1010300009F9012706464FF4803811E00220BDE887
:10104000F08100BF00F0FEF8801B404506D3002071
:1010500084F8447084F845000320F0E720680569AF
:10106000E807EFD184F84470E9E700002DE9F84F74
:10107000DFF89CE100224FF001084FF0030B4FF026
:101080000F0A00BF0B6808FA02F42340A34271D193
:101090004D68022D01D0122D0FD1D5080E695707CA
:1010A00000EB8505A9462D6AFF0E0AFA07FCBE4033
:1010B00025EA0C052E43C9F820600F795500066813
:1010C0000BFA05FC07F0030726EA0C06AF4037438E
:1010D00007604E68012E05D0022E03D0112E01D0DC
:1010E000122E0ED18668CF6826EA0C06AF40374331
:1010F000876046680F79A643C7F3001797403743C8
:101100004760C4688E6824EA0C04AE402643C6607B
:101110004C68E40075D53F4C256845F48045256052
:10112000246822F00306950704F4804400943A4CA6
:101130002D0F2644D6F80848DFF8E0C00AFA05F774
:10114000604524EA070401D100272EE0344FB8425D
:1011500001D1012729E0334FB84201D1022724E011
:10116000314FB84201D103271FE0304FB84202D1BE
:1011700004271AE045E02E4FB84201D1052714E0BC
:101180002C4FB84201D106270FE02B4FB84201D1B6
:1011900007270AE0294FB84201D1082705E0284F68
:1011A000B84201D1092700E00A27AF40274375461E
:1011B000C6F808784E68DEF80040F60324EA030417
:1011C00000D51C43124E2C60361D4D683468AD03AB
:1011D00024EA030400D51C430D4F346008374D68E2
:1011E0003C68ED0224EA030400D51C43084D3C6032
:1011F0000C354E682C68B60224EA030400D51C4363
:101200002C60521C102AFFF43DAFBDE8F88F00009F
:10121000003C0140443802400030014000000240E0
:101220000004024000080240000C0240001002408E
:101230000014024000180240001C0240002002403E
:101240000024024001488068704700002000002010
:1012500002488168027811448160704720000020B4
:10126000032010B500F0B0F8002000F005F800F001
:101270003DF8002010BD000010B5002201463620C8
:1012800088B000F081F8362000F072F81348016849
:1012900041F010010160006805A900F010000690FF
:1012A000684600F0D7FB00F0FBFB0D494000002230
:1012B0000C4CB0FBF1F10C4840F2E7330460C0E99C
:1012C0000332491EC0E9011200F0FBFD10B10120FC
:1012D00008B010BD044800F010FEF9E740380240A5
:1012E00040420F0000100040AC3300201F4808B5FA
:1012F000016841F080510160006800F0805000906A
:101300001A48001D016841F480410160006800F442
:1013100080400090032000F057F800226FF00B008F
:10132000114600F031F800226FF00A00114600F07B
:101330002BF800226FF00900114600F025F800227A
:10134000501F114600F020F80022101F114600F037
:101350001BF800220F21901E00F016F800220F212A
:10136000BDE80840501E00F00FB8000040380240B1
:10137000410900F01F028900012001F1E0219040A5
:10138000C1F80001704700000E4BF0B41B680D4619
:10139000C3F30223C3F10706042E00D90426191D46
:1013A000072901D2002300E0DB1E012404FA06F124
:1013B0009C40491E2940641E994014402143F0BCC2
:1013C00001F0C0BB0CED00E0064900F0070210B5CB
:1013D0004FF6FF040868044B204040EA02201843FF
:1013E000086010BD0CED00E00000FA052DE9F84F93
:1013F00004460078DFF824944FF000063746C00713
:101400000ED0D9F8001021F40001C9F80010D9F865
:101410000010626B1143C9F80010606B00B901261F
:10142000FE4D2068843500030ED5E16B286820F45A
:10143000401008432860E06BB0F5801F01D010B168
:1014400002E0012600E0012720684FF4800BC00273
:101450000CD5216C286820F4400008432860206CDB
:10146000584501D1012601E000B901272068C101DA
:1014700000D50126800666D5E8483830016841F07D
:10148000805101600068DFF898A300F08050009060
:10149000DAF8001041F48071CAF80010FFF7D2FEAC
:1014A000804605E0FFF7CEFEA0EB080064287DD85B
:1014B000DAF80000C005F5D5DFF8608308F16808A8
:1014C000D8F8000010F440702AD0218E01F4407149
:1014D000814225D0D8F80010D8F8002021F44071BE
:1014E00042F48032C8F80020D8F8002022F480327C
:1014F000C8F80020C8F80010D8F80000C0070FD0C6
:10150000FFF7A0FE824607E0FFF79CFEA0EB0A0172
:1015100041F288308142CAD8D8F800008007F3D55C
:10152000206BC0F3012103297ED0D9F8001021F4EB
:10153000F811C9F80010228ED8F80010C2F30B027F
:101540001143C8F800102078C00607D5286820F09D
:10155000807028602868A16B084328602188AF4804
:101560008830490405D5626E016821F44031114389
:1015700001602188090405D5A26E016821F440218B
:10158000114301602168C90305D5E26E016821F4A9
:101590004011114301602168890305D5226F01685C
:1015A00021F4400111430160217800E034E1490653
:1015B00005D5626C016821F00301114301602178B7
:1015C000090605D5A26C016821F00C0111430160E8
:1015D0002188C90505D5E26C016821F0300111436D
:1015E00001602188890505D5226D016821F0C001BF
:1015F000114301602188490505D5626D016821F418
:101600004071114301602188090505D5A26D01686B
:1016100021F44061114301602188C90407D5E26DBE
:10162000016821F4405100E05FE01143016021882E
:10163000890405D5226E016821F4404111430160FF
:101640002168490205D5A26F016821F0806111432C
:10165000016021684FF0006A890209D5E26F0168D4
:1016600021F0006111430160E16F514500D1012774
:1016700021680A0700D50127490305D5626F016873
:1016800021F04071114301602168090206D5D4F8A8
:101690008020016821F080511143016021684901D7
:1016A00006D5D4F88420016821F00051114301606F
:1016B0002068000106D5D4F88810286820F0007052
:1016C000084328602068C00006D5D4F88C1028682C
:1016D00020F0806008432860DFF84891012E0ED08A
:1016E0002068B0F1007F0AD08FE04F4AD9F800306F
:1016F000104023F4F8120243C9F800201BE7D9F880
:1017000000004E4620F08060C9F80000FFF79AFD07
:10171000804605E0FFF796FDA0EB080064287BD823
:1017200030680001F6D421783C487C30C90712D0DB
:10173000616B81B9237A62680168D0F800C09201B8
:10174000C1F3014142EA0142CCF3036142EA016183
:1017500041EA0371016021680A0303D5E26BB2F527
:10176000801F04D0C9021AD5216C594517D163686E
:10177000016894F80CC002689B01C1F3014143EA7F
:101780000141C2F3027241EA0C6141EA0271016057
:101790002968626A21F01F01521E114329602168E5
:1017A000C90110D5238A62680168D0F800C092018F
:1017B000C1F3036142EA034242EA0162CCF30271DF
:1017C00042EA01710160216889010CD56168228AB1
:1017D000237B94F808C0890141EA024141EA036190
:1017E00041EA0C7101603168B04641F080613160BE
:1017F000FFF728FD064604E0FFF724FD801B642860
:101800000AD8D8F800000001F6D5E7B3D9F80000EF
:101810004E4620F0805009E07BE00000083802408E
:101820000070004000380240FFFCFF0FC9F80000C4
:10183000FFF708FD074604E0FFF704FDC01B64281E
:1018400067D83068C0438000F6D5216835480A0360
:1018500001D5E26B1AB1C9021DD5216CD9B96369F2
:101860000168277E02689B01C1F3014143EA0143FD
:10187000C2F3027143EA076242EA0171016029681A
:101880006FF0FF0300E04BE0A26A21F4F85103EB94
:101890000222114329602168890212D5E16F514566
:1018A0000FD1238C6269016807689201C1F303615B
:1018B00042EA034242EA0162C7F3027142EA01715D
:1018C00001602178090716D561690268D0F800C067
:1018D0008B01277FC2F30362CCF3014143EA01414C
:1018E00041EA026141EA077101602868E16A20F477
:1018F000403008432860306840F080503060FFF787
:10190000A1FC044608E000BFFFF79CFC001B642814
:1019100002D90320BDE8F88F3068C0438000F3D4BB
:101920000020F7E7883802402DE9F04705000F4610
:1019300063D0444E306800F00F00B84209D23068DE
:1019400020F00F0038433060306800F00F00B842DC
:1019500053D128683C4C810712D5400703D5206835
:1019600040F4E05020602878000703D5206840F458
:1019700060402060A968206820F0F00008432060E3
:101980002878C0072AD0304968680839012810D063
:101990000968022810D0890700292EDA216821F071
:1019A000030101432160FFF74DFC804641F2883975
:1019B0000DE009688903EFE78901EDE7FFF742FCD5
:1019C000A0EB0801494502D90320BDE8F08768680B
:1019D000216801F00C01B1EB800FEFD1306800F00D
:1019E0000F00B8420BD9306820F00F003843306048
:1019F000306800F00F00B84201D00120E5E72878F8
:101A0000400705D5E968206820F4E05008432060CD
:101A10002878000706D52869216821F4604141EA49
:101A2000C000206000F05CF82168084AC1F303118F
:101A3000515CC840064908600020FFF71DFC0020EB
:101A4000C3E70000003C02400838024024E80008D8
:101A50002C0000200D4A0F2330B503604FF4E054F2
:101A60000B4B156805F003054560156805F0F0059A
:101A70008560156805F4E055C560126804EAD20275
:101A80000261186800F00F00086030BD083802409D
:101A9000003C024001480068704700002C00002014
:101AA0000449054809680068044AC1F38221515C71
:101AB000C8407047083802402C00002034E8000875
:101AC0000449054809680068044AC1F34231515C81
:101AD000C8407047083802402C00002034E8000855
:101AE000154910B51548096811F00C0213D01449B6
:101AF000042A0FD0082A0ED10F4C241F2268236815
:101B000002F03F025B0207D52068C0F38810A0FBFB
:101B1000010106E0084610BD2168C1F38811A1FB50
:101B200000010023FEF7E2FB2168C1F30141491CDB
:101B30004900B0FBF1F010BD083802400024F40069
:101B400040787D012DE9F84F05004FF000076ED079
:101B50002878DFF82093A9F1040AC007AAF1040449
:101B60004CD0D9F800104846C1F38101012908D0B2
:101B70000068C0F3810002280AD1DAF800004002B0
:101B800006D52068800339D568680028DFD035E0A5
:101B90006868B0F5803F0BD010B1B0F5A02F11D020
:101BA000206820F480302060206820F4802002E04B
:101BB000206840F480302060686890B1FFF742FBF5
:101BC00006460AE0206840F480202060F0E700BF6D
:101BD000FFF738FB801B642872D820688003F7D594
:101BE0000CE0FFF72FFB064605E000BFFFF72AFBDE
:101BF000801B6428F0D820688003F7D428788007F9
:101C000042D5D9F80010484611F00C0F08D00068F2
:101C1000C0F3810002280BD1DAF80000400207D49B
:101C20002068800718D5E868012800D114E01EE17B
:101C3000E8680028206817D040F001002060FFF716
:101C400001FB064605E000BFFFF7FCFA801B0228F7
:101C5000C2D820688007F7D52869216821F0F801EB
:101C600041EAC00020600FE020F001002060FFF793
:101C7000E9FA064605E000BFFFF7E4FA801B0228F8
:101C80001ED820688007F7D42878000729D579481E
:101C900069696C3000298046016812D041F0010169
:101CA0000160FFF7CFFA064605E000BFFFF7CAFA6A
:101CB000801B022804D8D8F800008007F6D510E071
:101CC00089E021F001010160FFF7BCFA064604E05B
:101CD000FFF7B8FA801B02287DD8D8F800008007EB
:101CE000F6D4287840076BD5DFF8888108F13808EA
:101CF000D8F80000C0000BD4D8F8001041F0805193
:101D0000C8F80010D8F80000012700F080500090BB
:101D100059480168C90512D40168834641F48071AD
:101D20000160FFF78FFA064605E000BFFFF78AFA69
:101D3000801B64284FD8DBF80000C005F6D54D4E57
:101D4000A868683601280AD008B1052811D0306883
:101D500020F001003060306820F0040002E03068BC
:101D600040F001003060A868A0B1FFF76BFA83462D
:101D70000CE0306840F004003060F0E7FFF762FAF2
:101D8000A0EB0B0141F28830814268D830688007AF
:101D9000F4D50EE0FFF756FA834607E0FFF752FA54
:101DA000A0EB0B0141F28830814258D8306880079F
:101DB000F4D42FB1D8F8001021F08051C8F80010E9
:101DC000A869E0B3D9F80010C1F3810102294ED00F
:101DD0000228206800E042E020F08070206003D0FC
:101DE000FFF730FA05463DE0FFF72CFA064604E01F
:101DF000FFF728FA801B022831D820688001F7D429
:101E0000D5E90921DFF874C0D5E9070695F8303027
:101E10004F0895F82C1030430CEB074545EA821229
:101E2000104340EA016040EA0370CAF800002068ED
:101E300040F080702060FFF705FA054605E014E0E9
:101E4000FFF700FA401B022809D820688001F7D567
:101E50000BE000BFFFF7F6F9401B022802D9032070
:101E6000BDE8F88F20688001F4D40020F8E7012055
:101E7000F6E7000008380240007000400000FFFF55
:101E800004284FF0E020016903D021F00401016132
:101E9000704741F00401FAE7401EB0F1807F10B5B1
:101EA00001D3012010BD4FF0E02460610F216017C5
:101EB00000F048FE0020A0610721216110BD70479D
:101EC000704710B5040003D094F83D0010B107E04E
:101ED000012010BD002084F83C00204600F00CF8E2
:101EE000022084F83D002068211D00F0CFFE012073
:101EF00084F83D00002010BD70470168CA6842F0B8
:101F00000102CA600068016841F00101016000201F
:101F10007047704770B50446006800250169C943E1
:101F2000890715D4C168C943890711D4EA1E026123
:101F300001212177206880698007204602D0FFF7C1
:101F4000E8FF04E000F0A5F8204600F0A3F82577AC
:101F500020680169C943490717D4C168C9434907C3
:101F600013D402216FF00402026121772068806996
:101F700010F4407F204602D0FFF7CBFF04E000F0D2
:101F800088F8204600F086F8257720680169C94363
:101F9000090716D4C168C943090712D404216FF098
:101FA0000802026121772068C0698007204602D0BC
:101FB000FFF7AFFF04E000F06CF8204600F06AF88D
:101FC000257720680169C943C90617D4C168C94388
:101FD000C90613D408216FF010020261217720682E
:101FE000C06910F4407F204602D0FFF792FF04E062
:101FF00000F04FF8204600F04DF825772068016981
:10200000C943C90708D1C168C943C90704D1891E9A
:102010000161204600F040F820686FF080050169FA
:10202000C943090607D4C168C943090603D4056139
:102030002046FFF744FF20680169C943C90507D45A
:10204000C168C943090603D405612046FFF737FF7D
:1020500020680169C943490609D4C168C9434906D2
:1020600005D46FF040010161204600F01FF82068A0
:102070000169C94389060BD4C168C943890607D4DD
:102080006FF0200101612046BDE87040FFF718BFE6
:1020900070BD70477047000000680349884201D155
:1020A000FFF7D6B870470000001000407047704737
:1020B00070B501680446C8690A688B6810F00F0F94
:1020C0005CD003F0010502F490762E4369D0C60778
:1020D00007D0D60505D501260E62E16E41F001015B
:1020E000E166810708D5D90706D02668022131624A
:1020F000E16E41F00401E166410708D5D90706D039
:10210000236804211962E16E41F00201E1660107D2
:102110000AD502F02001294306D02368082119625C
:10212000E16E41F00801E166E16E002932D08006DF
:1021300004D5900602D5204600F0AAFEE06E000706
:1021400003D420688068400625D5204600F092FE22
:102150002068816849061AD5816821F040018160B4
:10216000606EA0B12F490165606EFEF781FA00280C
:1021700010D0606E016DBDE870400847830610D531
:1021800093060ED52046BDE8704000F081BE204683
:10219000FFF78DFF70BD2046FFF789FF0020E06646
:1021A00070BD03062FD513062DD594F8690021289C
:1021B000F6D1B4F8520020B1A068B0F5805F0AD023
:1021C0000BE0086820F0800008602068016841F09A
:1021D0004001016070BD206960B1E06C411CE164A8
:1021E00021680078C1F82800B4F85200401EA4F815
:1021F000520070BDE06C0088C0F308008862E06C9B
:10220000801CE064F0E74006F3D55006F1D50B687A
:102210002022204623F040030B6084F8692000F060
:1022200014F970BD612E000810B5040003D094F8B5
:10223000690010B107E0012010BD002084F868009B
:10224000204600F027F8242084F8690020680168FF
:1022500021F001010160204600F056FE0128EBD07C
:10226000606A10B1204600F077FD2068416821F4D3
:10227000904141602068816821F02A0181602068D6
:10228000016841F0010101602046BDE8104000F006
:10229000C7BD00002DE9F04734490746006886B005
:1022A00088425FD13248016841F010010160006846
:1022B000032102264FF0070800F01000DFF8B4A059
:1022C00000244FF48069CDE90480CDE90241CDE9D5
:1022D00000964D4669465046FEF7C8FE3102009111
:1022E000CDE90164CDE9034869465046FEF7BEFEDC
:1022F000214E4FF00068214930463160C6E9018423
:10230000C6E903457461B461F46134627462FEF736
:1023100091FA18B192211AA000F05AFF164D4023ED
:102320007E666035B76305F10800144A783280E8AC
:1023300018026C612846AC61EC612C626C62C5E9E4
:102340000028FEF777FA18B1A4210DA000F040FF95
:102350003D6600220521AF632520FFF715F82520F3
:10236000FFF706F806B0BDE8F08700000010014056
:102370004438024000000240EC3200204064024039
:102380002E2E2F5372632F75736172742E630000AB
:10239000704700002DE9F843044690F869001F4695
:1023A00016460D4620284ED1C5B1BEB194F868003E
:1023B000012848D0012284F8682021214FF000082C
:1023C000C4F86C8084F869105034FEF73BFF268017
:1023D00081466680503C4FF4805619E00120BDE8EC
:1023E000F88300BFB4F85200401EA4F85200002247
:1023F0004B4680212046009700F0B2FEA0B9A068AD
:10240000B04201D1206988B115F8010B21688862BA
:10241000B4F852000028E5D100224B464021204666
:10242000009700F09DFE38B10320D8E735F8020B85
:102430002168C0F30800EAE7202184F86910002031
:1024400084F86880CBE70220C9E770470D4808B5DB
:10245000016841F48001016000680022052100F458
:10246000800000903A20FEF78FFF3A20FEF780FFB1
:10247000002205214620FEF787FFBDE808404620E0
:10248000FEF776BF3038024000B585B00749142208
:102490006846FDF75CFF0021684605F005F9044930
:1024A000086000F0FFFF05B000BD0000F4E7000881
:1024B000000000202DE9F04FFE4887B0016841F090
:1024C00010010160016801F010010591016841F0FF
:1024D00040010160016801F040010591016841F08F
:1024E00002010160016801F002010591016841F0FB
:1024F00008010160016801F008010591016841F0DF
:1025000004010160016801F004010591016841F0D6
:1025100001010160016801F001010591016841F4C8
:1025200000710160016801F400710591016841F4D6
:1025300080710160016801F480710591016841F4C6
:1025400080610160016801F480610591016841F0DA
:1025500020010160016801F020010591016841F04E
:102560008001016000680024062100F080000590D1
:10257000022578200090CDE90154CDE90341CE48F1
:102580006946FEF773FD0920694604270097032674
:10259000CDE90360C848CDE90154FEF767FD02AA02
:1025A0004FF68371CDE900154FF00C09C24882E85F
:1025B00050026946FEF75AFD12214FF0010A32021D
:1025C000CDF808A0BD48CDE90021CDE90347694613
:1025D000FEF74CFD02AA43F62340CDE900054FF07B
:1025E0000A08B64882E850016946FEF73FFD182008
:1025F000694602AACDE90005B04882E85001FEF71D
:1026000035FDC0200294CDE900050B206946CDE9D7
:102610000360AB48FEF72AFDE9024FF0080B02AA5F
:10262000A848CDE90015694682E85008FEF71EFD6E
:10263000A803009012206946CDE90104A248CDE923
:102640000347FEF713FD8020009012206946CDE974
:10265000010A0B20CDE903609848FEF707FD4020F2
:10266000694602AACDE90005944882E85001FEF7C8
:10267000FDFC02AA48F23710CDE9000593486946EF
:1026800082E85002FEF7F2FC4FF23B006946CDE9CA
:1026900000048F480294FEF7E9FC02AA4CF2037092
:1026A000CDE900058648694682E85002FEF7DEFC67
:1026B00040F608000090CDE9015482486946CDE912
:1026C0000346FEF7D3FC70020294CDE90005092011
:1026D0006946CDE903607B48FEF7C8FCE80200903C
:1026E00005206946CDE90154CDE903407648FEF75F
:1026F000BDFC4FF451406946CDE900047548029491
:10270000FEF7B4FC02AA40F2FF60CDE90005714873
:10271000694682E85002FEF7A9FCF8206946CDE937
:1027200000046D480294FEF7A1FCE8020090072027
:102730006946CDE90154CDE903406448FEF796FCB3
:1027400070020294CDE900050B206946CDE90360D3
:102750005E48FEF78BFC30206946CDE900045848FE
:102760000294FEF783FCCDF800B06946CDE9015430
:102770005348CDE90346FEF779FCA8020294CDE95F
:10278000000505206946CDE903604F48FEF76EFC61
:1027900002AA4FF63F00CDE900055048694682E89D
:1027A0005002FEF763FC02AA4548694682E85008D9
:1027B000CDE90075FEF75AFC02A84FF62C71CDE961
:1027C0000015694680E85002DFF814914846FEF78C
:1027D0004DFCA802694602AACDE900053D4882E801
:1027E0005001FEF743FCE8010090CDE90154364862
:1027F000694603940494FEF739FC28030090394895
:102800006946CDE901043348FEF730FCE801009049
:10281000CDE901542B486946CDE90345FEF726FC76
:10282000C021284802AACDE90015694682E850086F
:10283000FEF71CFC1020694602AACDE900054846B7
:1028400082E85001FEF712FC8020009006206946C5
:10285000CDE90154CDE903401C48FEF707FC4820B0
:102860006946CDE9000419480294FEF7FFFB802079
:102870000090CDE9015419486946CDE90346FEF7B9
:10288000F5FB40200090CDE9015414486946CDE99C
:102890000346FEF7EBFB4FF4E0606946CDE9000626
:1028A0000E480294FEF7E2FB02AA0648694682E857
:1028B000500119E03038024000100240000402408C
:1028C000000C0240000802400000024000180240D4
:1028D0000024024000200240002802400014024070
:1028E000001C024000001210CDE900A5FEF7BEFB5F
:1028F000009769463A48CDE90164FEF7B7FB092025
:1029000000976946CDE903603648CDE90154FEF7EA
:10291000ADFBE802009012206946CDE9010A324879
:10292000CDE90367FEF7A2FB28030294CDE9000579
:1029300009206946CDE903602B48FEF797FB2B4839
:102940006946CDF800A0CDE901042948FEF78EFBC9
:1029500050206946CDE9000625480294FEF786FB23
:10296000A8020090CDE901541F486946CDE903480B
:10297000FEF77CFB80206946CDE9000448460294BE
:10298000FEF774FB28211A4802AACDE90015694612
:1029900082E85001FEF76AFB0D200097CDE9015453
:1029A0006946CDE903401348FEF760FB092140204A
:1029B0000090CDE90154CDE9034169464846FEF750
:1029C00055FB0521B0030090CDE90154CDE9034149
:1029D00004486946FEF74AFB07B0BDE8F08F0000E7
:1029E0000008024000040240000C024000001110E8
:1029F0000000024000240240FEB53A4CC021A8224B
:102A0000251D002721700A236270FF20A7702E1D4C
:102A1000E370012328706870A870EF703170002196
:102A200072700846B770F3700AF054FC2068E178C1
:102A30002D4A90FA80FC2D4B90FA80FE00BA0C06CD
:102A40000CF47F4C084344EA0C240EF47F0CA5F1EF
:102A5000100144EA1C2444EA106008602868E97800
:102A600090FA80FC05BA00BA0C06084305F47F45CD
:102A70000CF47F0CA6F1100144EA052444EA1C245E
:102A800044EA106008603068F17805BA06BA00BA06
:102A90000C060843134905F47F45091F06F47F0619
:102AA00044EA052444EA162444EA106008600097CA
:102AB000CDE901320A1F0E480B46083904F06AFBC3
:102AC0000B4804F00BFC0A4890F82B00400708481C
:102AD00003D5BDE8FE4004F03DBCBDE8FE4004F077
:102AE00003BC000010000020A5D400081545000814
:102AF000640100200E48002110B50C4C0C224FF44C
:102B0000E1330460C0E90131C160C0E904128161B0
:102B1000C16101624162FFF787FB002805D0BDE873
:102B20001040612103A000F053BB10BD0010014014
:102B30007C3200202E2E2F5372632F7573617274B6
:102B40002E630000090700284FEA116106DA00F041
:102B50000F0000F1E02080F8141D704700F1E02024
:102B600080F800147047FFF747FF012004F000FCD5
:102B7000FBE704F08FBD00002A4870B5B8B00168CB
:102B800041F080510160006800F080503690264886
:102B9000016821F4404141F4804101600068022550
:102BA000C026249500F44040369004202A95102237
:102BB0000823CDE92D602F9001210024CDE92712B3
:102BC000CDE92B4324A8FEF7BDFF00B1FEE74FF48B
:102BD000805233944FF4A0510F20CDE93412CDE947
:102BE0003105032131A8FEF79FFE00B1FEE740202A
:102BF000119400906846FEF7F9FB00B1FEE7FEF77E
:102C000049FF4FF47A71B0FBF1F0FFF745F904206A
:102C1000FFF736F900220F21501EFEF7B5FB38B042
:102C200070BD00004038024000700040104A30B5CE
:102C30001048146800210F4B44F4700414600833EA
:102C400005680D4A0D4C45F00105056019600368E3
:102C5000051D1340074A03600C322C600568E3052C
:102C6000034C25F480250560803C1160236030BD55
:102C700088ED00E000380240FFFFF6FE103000242F
:102C80000148FFF747B90000AC330020F0B5274BEF
:102C90004FF0804E264D02689842264E264F274C14
:102CA00009D0704507D0A84205D0B04203D0B84241
:102CB00001D0A04205D1D1F804C022F070024CEA44
:102CC000020298421BD0704519D0A84217D0B042DA
:102CD00015D0B84213D0A04211D0194DA8420ED041
:102CE000184DA8420BD0184DA84208D0174DA84245
:102CF00005D0174DA84202D0164DA84203D1CD6889
:102D000022F440722A434D6922F080022A43026075
:102D100098428A68C2620A68826201D0A04201D1E8
:102D20000969016301214161F0BD0000000001401B
:102D30000004004000080040000C00400004014076
:102D4000004001400044014000480140001800409C
:102D5000001C00400020004090F82410C90706D055
:102D60000168836A4A6822F400321A434A6090F884
:102D70002410890706D50168C36A4A6822F48032A4
:102D80001A434A6090F82410490706D50168036B7E
:102D90004A6822F480221A434A6090F824100907F6
:102DA00006D50168436B4A6822F400421A434A6020
:102DB00090F82410C90606D50168836B8A6822F44E
:102DC00080521A438A6090F82410890606D501685B
:102DD000C36B8A6822F400521A438A6090F8241068
:102DE000490611D50168036C4A6822F480121A431F
:102DF0004A60016CB1F5801F06D10168436C4A68D6
:102E000022F4C0021A434A6090F82410090606D53D
:102E10000168826C486820F40020104348607047C5
:102E200038B500250446C566FEF70CFA034620684F
:102E3000006800070BD56FF07E400090002220460E
:102E40004FF4001100F08CF908B1032038BD2020A8
:102E500084F8690084F8685084F86A00002038BD5E
:102E600010B5806B0021A0F85A10A0F85210FFF79F
:102E70001EF910BD016820220B6823F490730B60CB
:102E800001688B6823F001038B6080F86A2070472B
:102E900010B590F86A10B0F85C202229016805D0BE
:102EA000886940F008008861022010BD8368B3F58E
:102EB000805F01D1036973B14B6A416D13404A1CB5
:102EC00042650B70B0F85A10491E0904090CA0F8AD
:102ED0005A1008D016E04B6A416D13400B80416DCB
:102EE000891C4165EEE7016820220B6823F490738A
:102EF0000B6001688B6823F001038B6080F86A2007
:102F0000FFF746FA002010BD2DE9F047044680681F
:102F1000874B884F2668D4E90415E2690843D6F840
:102F200000C0102115430022284315460CEA030C6B
:102F3000814B4CEA000CC6F800C04FF400492068F1
:102F4000D4F80CC0466826F4405646EA0C064660A3
:102F50002668D4F82080A069D6F808C040EA0800A6
:102F60002CF4306C4CEA000CC6F808C02068B8425B
:102F70000AD11B6813F0030352D0012B7AD0022B25
:102F800076D0032B79D177E06C4EB0420AD11B6822
:102F900013F00C036AD0042B6CD0082B68D00C2BD8
:102FA0006BD169E0664EB0420AD11B6813F0300362
:102FB0005CD0102B5ED0202B5AD0302B5DD15BE043
:102FC000604EB0420AD11B6813F0C0034ED0402BB4
:102FD00050D0802B4CD0C02B4FD14DE05A4EB04238
:102FE0000DD11B6813F4407340D0B3F5807F41D0FE
:102FF000B3F5007F3CD0B3F5407F3ED13CE0534E6B
:10300000B0420FD11B6813F4406309D0B3F5806F51
:1030100030D0B3F5006F2BD0B3F5406F2DD12BE03E
:1030200001212AE04A4EB0420DD11B6813F44053EF
:103030001CD0B3F5805F1DD0B3F5005F18D0B3F599
:10304000405F1AD118E0434EB04216D11B6813F40A
:1030500040430BD0B3F5804F0CD04B4508D0B3F5AF
:10306000404F0AD108E005E002E0FFE7002104E05C
:10307000022102E0042100E00821E6694E452AD140
:1030800009291FD2DFE801F00508141E171E1E1EB5
:103090001A00FEF705FD01E0FEF712FD0146D4F827
:1030A0000400490001EB5001B1FBF0F082B20AE0EC
:1030B00029496068F6E7FEF713FDEFE760684FF413
:1030C0008031EFE70125216822F00F00C2F34202B0
:1030D0001043C86028E0092925D2DFE801F005087F
:1030E0000B24102424241C00FEF7DAFC09E0FEF770
:1030F000E7FC06E06168194A02EB51020EE0FEF7B8
:10310000EFFC0146D4E9002001EB5001B1FBF0F0E7
:1031100080B2D06008E0616809EB5102B2FBF1F1C6
:1031200089B2C16000E001252846BDE8F0870000B3
:10313000F369FFEF00100140903802400044004066
:1031400000480040004C0040005000400014014086
:1031500000780040007C00400048E8010024F400B2
:103160002DE9F041984617460E460446069D1DE09F
:10317000681C1BD02DB1FEF765F8A0EB0800A84233
:1031800014D32168202000220B6823F4D0730B6035
:1031900021688B6823F001038B6084F8690084F850
:1031A0006A00032084F86820BDE8F0812068C069C7
:1031B00036EA000004D00020B842D9D00020F3E75E
:1031C0000120F9E70148FEF773BF00007C320020C0
:1031D000FEE700000FB4054B10B503A9044A02989E
:1031E00000F018F810BC5DF814FB0000D145000891
:1031F0006001002002E008C8121F08C1002AFAD1AD
:1032000070477047002001E001C1121F002AFBD166
:10321000704700002DE9FF4F8BB09A460F460546D8
:10322000002606E025280BD052460D9990476D1CCC
:10323000761C28780028F5D10FB03046BDE8F08F15
:103240000024A0460122604900E0044315F8013F34
:10325000203B02FA03F00842F7D128782E2817D134
:1032600015F8010F44F004042A280ED06FF02F0245
:103270002878A0F1300109290AD808EB880102EB6F
:10328000410100EB01086D1CF2E757F8048B6D1C3F
:10329000287869283ED006DC0028CDD063280BD0E2
:1032A000642804D136E0732810D075284BD05246DC
:1032B0000D999047761C85E017F8040B8DF80000F7
:1032C00000208DF80100E946012003E057F8049B37
:1032D0004FF0FF3061074FF0000401D40AE0641C96
:1032E00044450DDA8442FADB19F804100029F6D1BE
:1032F00006E0641C8442FCDB19F804100029F8D1B4
:10330000264404E019F8010B52460D999047641EBB
:10331000F8D257E001CF4FF00A0B002802DA404202
:103320002D2102E0210504D52B218DF82410012147
:1033300003E0E10705D02021F7E70DF1200908910E
:103340000CE00021F9E701CF4FF00A0BF9E75946ED
:10335000FDF72EF801F1300209F8012D0028F6D111
:10336000ADEB090000F1200B600701D44FF001081C
:10337000D84502DDA8EB0B0000E0002080460024C9
:1033800006E009A85246005D0D999047641C761C22
:1033900008988442F5DB04E0302052460D999047AE
:1033A000761CB8F10001A8F10108F5DC05E019F878
:1033B000010B52460D999047761CBBF10001ABF111
:1033C000010BF4DC6D1C34E7092801002DE9F047FE
:1033D000040017466FF005050E4648D004F11400AE
:1033E000814605F036FFA8B3AEB32078E16A03F05A
:1033F0009DFB05004FF0FF383DD06E6005F06EFE7E
:10340000294648462F7205F01AFF98B36C680021D0
:10341000204606F09FF90021204608F0BDFC00215F
:10342000204608F015FF00222046114607F0B0FEA6
:103430000021204606F000FD0020686005F1100024
:10344000044605F0DBFE204605F0F6FE284603F0B4
:1034500057FC1BE00BE0FFE71149484605F0EFFE83
:1034600028B9E36A1BB10022204611469847284636
:10347000BDE8F0870CE00A49484605F0E0FE28B9AF
:10348000E36A1BB100222046114698474046EFE709
:10349000E36A1BB100222046114698470020E7E767
:1034A0009000002008B5012004490022009003028A
:1034B0000348006805F00DFF08BD000009D20008B0
:1034C0005C01002010B50446406880472068224611
:1034D000BDE81040014905F015BF0000C5340008E3
:1034E00070B50C460546880706D009A34FF4CE7286
:1034F00013A11BA0FFF76EFE05F036FEA968096850
:103500002160A9680C60BDE8704005F039BE00007C
:103510002E2E2F4D6964646C6577617265732F542C
:10352000686972645F50617274792F4C7749502FCB
:103530007372632F636F72652F6D656D702E6300FC
:103540006D656D705F667265653A206D656D2070A2
:10355000726F7065726C7920616C69676E6564006A
:10356000417373657274696F6E2022257322206621
:1035700061696C6564206174206C696E65202564E6
:1035800020696E2025730A0070B5044605F0ECFD35
:103590000546A0680468002C0FD02168A2070160CE
:1035A00006D008A34FF4A47212A11BA0FFF712FECD
:1035B000284605F0E5FD204670BD284605F0E0FDF3
:1035C000002070BD2E2E2F4D6964646C657761728A
:1035D00065732F54686972645F50617274792F4CFF
:1035E0007749502F7372632F636F72652F6D656D0E
:1035F000702E63006D656D705F6D616C6C6F633A0A
:10360000206D656D702070726F7065726C792061CD
:103610006C69676E65640000417373657274696FED
:103620006E2022257322206661696C6564206174B6
:10363000206C696E6520256420696E2025730A0060
:103640002DE9F04704000E4606D146A34FF4C2729E
:1036500051A155A0FFF7BEFD6578002767606FF0A8
:103660000C08042D677003D005F07EFD267209E07A
:103670004FF0000644B105F077FD94F9081041457C
:1036800000DD277205F07CFDE36A7BB10022204655
:1036900004219847E36A4BB100222046114698471F
:1036A000E36A1BB1002220460221984704F1100072
:1036B000814605F0CEFD18B10021484605F0BFFD5A
:1036C00004F11400814605F0C4FD18B100214846FC
:1036D00005F0B5FD012D0FD0042D0DD0032D0BD01D
:1036E000A06A00283BD0BDE8F0471EA340F2BD12FF
:1036F00037A12DA0FFF76EBD94F82010C1F3800014
:10370000002821F0040184F8201028D1A06A30B9E3
:1037100014A340F2B31235A123A0FFF75BFDA06A0A
:103720000671A06A05680C35284605F0CDFD30B954
:103730000CA34FF4DB7234A11BA0FFF74BFDA76273
:1037400044B105F011FD94F90810414500DD2672E1
:1037500005F016FD2846BDE8F04705F0B2BDBDE80E
:10376000F08700002E2E2F4D6964646C65776172BE
:1037700065732F54686972645F50617274792F4C5D
:103780007749502F7372632F6170692F6170695F81
:103790006D73672E63000000636F6E6E20213D2005
:1037A0004E554C4C00000000417373657274696F94
:1037B0006E2022257322206661696C656420617425
:1037C000206C696E6520256420696E2025730A00CF
:1037D000636F6E6E2D3E63757272656E745F6D738E
:1037E00067203D3D204E554C4C000000636F6E6ECF
:1037F0002D3E63757272656E745F6D736720213D37
:10380000204E554C4C000000696E61766C69642056
:103810006F705F636F6D706C657465645F73656D09
:103820000000000070B50A4D0024064604EB440079
:1038300005EBC000017D29B18068B04202D120466D
:1038400000F034F9641CE4B20A2CEFD370BD000020
:10385000185E01202DE9F74F84B04FF00A0B0024C9
:103860000646DA465F46D94602940194009404EB7A
:1038700044004F490A2F039001EBC00898F81450F8
:1038800016D0002D24D0012D08D0022D06D249A338
:1038900040F2251255A165A0FFF79CFC66B1316886
:1038A000D8F80400814207D160B207B0BDE8F08FBC
:1038B000002DE8D167B20BE0012D17D0022D07D300
:1038C000B8F812000099884202D34FFA84FA0090A7
:1038D000641CE4B20A2CCAD3059881074FF0FF306C
:1038E000E3D40A2F18D01ADAFCB242E03048039928
:1038F00050F831000028B8F8120006D0029988422A
:10390000E6D34FFA84F90290E2E701998842DFD3C7
:103910004FFA84FB0190DBE70599C907C5D0BAF1DE
:103920000A0F0FDA0AF0FF04214804EB440150F8B3
:10393000310090B11FA340F26F1246A13BA0FFF7E8
:1039400049FC0AE0BBF10A0F02DA0BF0FF0404E0C5
:10395000B9F10A0FA9DA09F0FF040A2C06D315A35E
:1039600040F2811241A131A0FFF734FC204600F063
:103970009DF80A2C06D30FA340F285123BA12BA081
:10398000FFF728FC0A4804EB440100EBC105287D41
:1039900030B108A34FF4C37239A124A0FFF71AFC79
:1039A0000EB130686860002160B269827DE7000076
:1039B000185E01202E2E2F4D6964646C657761724C
:1039C00065732F54686972645F50617274792F4C0B
:1039D0007749502F7372632F636F72652F6970760A
:1039E000342F6574686172702E63000073746174A3
:1039F00065203D3D204554484152505F5354415449
:103A0000455F50454E44494E47207C7C207374618D
:103A10007465203E3D204554484152505F53544107
:103A200054455F535441424C450000004173736557
:103A30007274696F6E2022257322206661696C653D
:103A400064206174206C696E6520256420696E2095
:103A500025730A006172705F7461626C655B695DF9
:103A60002E71203D3D204E554C4C000069203C20DD
:103A70004152505F5441424C455F53495A45000002
:103A80006172705F7461626C655B695D2E737461F5
:103A90007465203D3D204554484152505F53544188
:103AA00054455F454D5054590000000070B5074C17
:103AB00000EB4005002654F8350018B104F058FA20
:103AC00044F8356004EBC500067570BD185E012032
:103AD0002DE9F0430D00074685B009D07C684FF40E
:103AE00080782088404539D12079062836D109E0F0
:103AF0001CA34FF4227229A12CA0FFF76BFB05B089
:103B0000BDE8F0836079042828D16088082825D191
:103B1000D4F80E0004906868A16920B1814202D1F6
:103B20000126334601E000260223284604F108025C
:103B300004A9914600F094FBE08840450ED16EB197
:103B40000222284604AB291DCDE90232CDE9001935
:103B500005F125034A46194600F084FA384604F078
:103B600007FACCE72E2E2F4D6964646C657761727D
:103B700065732F54686972645F50617274792F4C59
:103B80007749502F7372632F636F72652F69707658
:103B9000342F6574686172702E6300006E657469FD
:103BA0006620213D204E554C4C000000417373654A
:103BB0007274696F6E2022257322206661696C65BC
:103BC00064206174206C696E6520256420696E2014
:103BD00025730A00FEB5040015460E4606D141A322
:103BE00040F21B324DA151A0FFF7F4FA36B93DA3C4
:103BF0004FF4477257A14DA0FFF7ECFA35B939A33E
:103C000040F21D3256A149A0FFF7E4FA2868214688
:103C100000F072FE08B1564B3CE02868C0F3031177
:103C20000E2922D0D4E901210A400140914208D056
:103C300080B2A0F57E41A93903D0E068A0B304F1B9
:103C40000C054C4A4C49107800EB400301EBC303D0
:103C50001F7D022F2CD32F685B689F4228D102461C
:103C60003146204600F08AF8FEBD01228DF804207E
:103C700000208DF805005E218DF80610687801ABF4
:103C800000F07F008DF80700A8788DF80800E8782C
:103C90008DF809004FF4006004F1250231460090D0
:103CA000204600F0BBFBFEBDFFE76FF00300FAE724
:103CB0005FF0000000EB400301EBC3031F7D022F08
:103CC00006D32F685B689F4202D1C0B21070C6E76E
:103CD000401C40B20A28EDDB32462946204600F05F
:103CE000D5F8E0E72E2E2F4D6964646C657761721C
:103CF00065732F54686972645F50617274792F4CD8
:103D00007749502F7372632F636F72652F697076D6
:103D1000342F6574686172702E6300006E6574697B
:103D20006620213D204E554C4C00000041737365C8
:103D30007274696F6E2022257322206661696C653A
:103D400064206174206C696E6520256420696E2092
:103D500025730A007120213D204E554C4C00000077
:103D600069706164647220213D204E554C4C000006
:103D70003CE800084C010020185E01202DE9F843C2
:103D80001546884606461C4802EB450100EBC10477
:103D9000207D022806D219A34FF43B7225A131A041
:103DA000FFF718FA144A05EB4501207D02EBC10527
:103DB0000C35022813D1608A0327B0F58E7F04D911
:103DC000211D304600F006FA07E0B0F5877F06D3E4
:103DD000211D2A46304600F003FA00B927754FF43A
:103DE000006006F125022B4641460090304600F067
:103DF00015FBBDE8F8830000185E01202E2E2F4D24
:103E00006964646C6577617265732F546869726464
:103E10005F50617274792F4C7749502F7372632F02
:103E2000636F72652F697076342F65746861727084
:103E30002E6300006172705F7461626C655B617219
:103E4000705F6964785D2E7374617465203E3D20F7
:103E50004554484152505F53544154455F53544177
:103E6000424C4500417373657274696F6E20222560
:103E70007322206661696C6564206174206C696ED0
:103E80006520256420696E2025730A002DE9FC5FFA
:103E90008246144625300190086888464FF0FF3668
:103EA0004FF0000B514600F027FD002828D1D8F82C
:103EB0000000C0F303110E2922D0B8F1000F1FD06B
:103EC00000281DD0012152464046FFF7C3FC0700E1
:103ED00018D4394907EB470901EBC905287D0028AB
:103EE00012D0012808D0022806D234A340F2C732EB
:103EF00040A14AA0FFF76EF9BBF1000F0AD108E01C
:103F00006FF00F00BDE8FC9FC5F808A001212975DE
:103F100000E034B94146504600F05CF9002C0646FA
:103F2000F0D0287DDFF8908002280DD345484FF46B
:103F3000006105F10C0307705046019A009121467B
:103F400000F06CFA064635E0012833D14FF47B7659
:103F5000254668892989884207D1286828B117A38E
:103F6000324639A12DA0FFF735F9287B01280ED064
:103F700029890022022003F0AFFB050018D021465A
:103F800003F072FE58B1284603F0F2FF10E02D68EE
:103F9000002DDED12546204604F00AFA45B158F836
:103FA000390008B103F0E4FF002648F8395001E079
:103FB0004FF0FF363046A5E7185E01202E2E2F4D1C
:103FC0006964646C6577617265732F5468697264A3
:103FD0005F50617274792F4C7749502F7372632F41
:103FE000636F72652F697076342F657468617270C3
:103FF0002E6300006172705F7461626C655B695D65
:104000002E7374617465203D3D2050454E44494EE9
:1040100047206F7220535441424C450041737365F1
:104020007274696F6E2022257322206661696C6547
:1040300064206174206C696E6520256420696E209F
:1040400025730A004C0100206E6F207061636B6560
:10405000742071756575657320616C6C6F7765642C
:10406000210000002DE9FF4F81B0984606004FF077
:104070000007DDE90FA9DDF838B006D12BA34FF416
:104080008B6238A13BA0FFF7A5F800221C2102207B
:1040900003F022FB050046D068891C2806D223A322
:1040A00040F263423DA133A0FFF794F86C68119889
:1040B00001F090FCE08096F82400062806D04449E0
:1040C0001AA32CA040F26A42FFF784F8D8F8001037
:1040D0000623A1604FF48071B8F80400A081DAF8DB
:1040E0000020C4F812200822BAF80400E082DBF8AD
:1040F0000000C4F80E00D9F80000A061042021805F
:1041000040F606016280237160713046DDE90223CA
:104110000091294600F082F9284603F029FF38462D
:1041200005B0BDE8F08F4FF0FF30F9E72E2E2F4D90
:104130006964646C6577617265732F546869726431
:104140005F50617274792F4C7749502F7372632FCF
:10415000636F72652F697076342F65746861727051
:104160002E6300006E6574696620213D204E554C1B
:104170004C000000417373657274696F6E202225D4
:104180007322206661696C6564206174206C696EBD
:104190006520256420696E2025730A0063686563C5
:1041A0006B20746861742066697273742070627524
:1041B000662063616E20686F6C642073747275632F
:1041C00074206574686172705F686472000000003A
:1041D00078EA0008014A00F003B800003CE8000853
:1041E0007FB5064D0124031DCDE90214CDE900354C
:1041F00021331946FFF736FF04B070BD42E80008CE
:1042000070B5164D5FF0000404EB440005EBC001EF
:10421000087DF0B14A8A521C92B24A82B2F5967F6A
:104220000AD2012806D003280AD004280AD001287F
:104230000BD00EE0052A08D32046FFF737FC08E034
:10424000042000E00220087503E08868091DFFF7DC
:10425000C1FF641CE4B20A2CD6D370BD185E0120E5
:10426000F8B5044690F824001F46154606280E4669
:1042700006D020A340F2AB122CA135A0FEF7AAFF76
:104280009EB3306888B3214600F036FB68BB3078B7
:10429000C0F303100E2829D0224639463046FFF7D6
:1042A000D9FA002820DB344A00EB4001022302EB5C
:1042B000C1000375002384602E68C660AE88068244
:1042C000438252F8316076B142F831304FF40060E9
:1042D0002B4604F1250231460090204600F09EF85E
:1042E000304603F045FE0020F8BDFFE76FF00F00F9
:1042F000FAE700002E2E2F4D6964646C65776172B9
:1043000065732F54686972645F50617274792F4CC1
:104310007749502F7372632F636F72652F697076C0
:10432000342F6574686172702E6300006E65746965
:10433000662D3E6877616464725F6C656E203D3DFA
:10434000204554485F4857414444525F4C454E0015
:10435000417373657274696F6E2022257322206623
:1043600061696C6564206174206C696E65202564E8
:1043700020696E2025730A00185E012070B504467E
:1043800040890D460E283CD9606801788689CA07A5
:1043900014D0012905D020490622FBF7FCFF48B1C3
:1043A0000CE0417851B980785E2807D1607B40F0FD
:1043B000100002E0607B40F008006073082E6FF090
:1043C0000D0103D0B6F5C16F1BD10FE095F82B009E
:1043D000000716D560890E2813DB204603F084FE03
:1043E00078B92946204600F0C9FB12E095F82B0069
:1043F000000706D560890E2803DB204603F074FE13
:1044000018B1204603F0B4FD03E029462046FFF72B
:104410005FFB002070BD00003CE800082DE9F04182
:104420001F4690460E460446069801F0D3FA0E2128
:104430000546304603F058FE18B16FF00100BDE8A4
:10444000F0817068858139680160B9888180D8F809
:104450000020C0F80620B8F80410418194F8240028
:10446000062806D006A340F22B1213A11FA0FEF7C8
:10447000B1FEA26931462046BDE8F0411047000078
:104480002E2E2F4D6964646C6577617265732F54AD
:10449000686972645F50617274792F4C7749502F4C
:1044A0007372632F6E657469662F65746865726ECA
:1044B00065742E63000000006E657469662D3E68A9
:1044C00077616464725F6C656E206D7573742062D1
:1044D00065203620666F722065746865726E65743B
:1044E0005F6F75747075742100000000417373650F
:1044F0007274696F6E2022257322206661696C6573
:1045000064206174206C696E6520256420696E20CA
:1045100025730A0010B5040006D10BA340F23E2219
:104520000EA112A0FEF756FE1A49732061611A49C6
:10453000A161742184F82C00204684F82D1001F02C
:10454000FFF8002010BD00002E2E2F5372632F6540
:10455000746865726E657469662E63006E65746951
:104560006620213D204E554C4C0000004173736580
:104570007274696F6E2022257322206661696C65F2
:1045800064206174206C696E6520256420696E204A
:1045900025730A00D53B0008215900080B4E04463C
:1045A0004FF0FF373946306803F03EF80028F9D164
:1045B000204601F053F90500F4D0226921469047C6
:1045C0000028F5D0284603F0D3FCF1E71C000020BA
:1045D00013B5044801224FF6FF736946FDF7DAFE72
:1045E00000981CBD7C3200200A46032100F0F4B87C
:1045F0002DE9FE4F8A4644490446D1F8088098F8D0
:1046000000000007870E142F78D36089042875D323
:1046100060680078002871D008286FD1486901F1DE
:104620001405C0F303120E2A68D08946096800F009
:1046300063F9002862D1208908285FD307F10E01B1
:1046400020460E4603F050FD00282DD02089002280
:10465000384481B2022003F03FF806004ED0718941
:1046600007F10800814216D370683A464146FBF7CD
:104670006EFE7942304603F037FD002806D0AF22A7
:1046800022A330A13DA0FEF7A5FD04E0214630465F
:1046900003F0EAFA18B1304603F06AFC2EE0204637
:1046A00003F066FC34460CE07142204603F01CFD2A
:1046B000002806D0C02215A33AA130A0FEF78AFD3B
:1046C0001CE066683946204603F00EFDB0B960680C
:1046D00000212A68FF27C2600A46D9F8103003611A
:1046E000012331707180077241812046CDE90013AA
:1046F0003B462946CDF808A000F012FB2046BDE855
:10470000FE4F03F035BC00001C7100202E2E2F4DF3
:104710006964646C6577617265732F54686972644B
:104720005F50617274792F4C7749502F7372632FE9
:10473000636F72652F697076342F69636D702E63B5
:104740000000000069636D705F696E7075743A20D7
:104750006D6F76696E6720722D3E7061796C6F6146
:104760006420746F2069636D702068656164657290
:10477000206661696C65640A00000000417373651E
:104780007274696F6E2022257322206661696C65E0
:1047900064206174206C696E6520256420696E2038
:1047A00025730A0069636D705F696E7075743A20D5
:1047B000726573746F72696E67206F726967696E74
:1047C000616C20702D3E7061796C6F616420666150
:1047D000696C65640A0000002DE9FF47924689462E
:1047E000002206462421012002F076FF050031D088
:1047F0006889242806D218A340F2611224A12FA0B0
:10480000FEF7E8FC6C684FF0000877681C2284F81B
:10481000009084F801A0A4F80480A4F806806868D9
:1048200071680830FBF793FDF868039003A800F067
:1048300019FC60B1A4F802800122CDF80080FF23AA
:10484000CDE901200021284603AA00F069FA284694
:1048500003F08EFBBDE8FF872E2E2F4D6964646C3C
:104860006577617265732F54686972645F50617215
:1048700074792F4C7749502F7372632F636F726571
:104880002F697076342F69636D702E63000000000D
:10489000636865636B207468617420666972737401
:1048A00020706275662063616E20686F6C64206999
:1048B000636D70206D657373616765004173736527
:1048C0007274696F6E2022257322206661696C659F
:1048D00064206174206C696E6520256420696E20F7
:1048E00025730A000A460B21FFF776BFEFF3058018
:1048F000002800D001207047421C12D088B191F8E6
:104900002B2092070BD54A68824208D089680A405A
:1049100000EA0103934202D10143491C01D0002067
:1049200070470120704700002DE9F74F86B004461C
:104930000025AE1F07981427408C1438C11700EBD0
:104940005170C0F3CF0B60680590017801F00F0142
:10495000052904D056A340F2E12264A10BE0C088EF
:1049600001F038F88104C0F30C0002900AD550A37E
:1049700040F2E62267A16EA0FEF72CFC304609B09B
:10498000BDE8F08F208914381FFA80F880E000BF5E
:10499000B8EBCB0F01D34FEACB0080B203900022DB
:1049A0001421022002F098FE5FEA000A78D06089A4
:1049B000142806D23EA34FF4427267A15CA0FEF712
:1049C00009FCDAF8040014220599FBF7C0FCDAF8B8
:1049D0000400039E04902BE06089C01B85B2AE42A8
:1049E00000D2354615B3052001F09CFF5FEA0009AF
:1049F00053D0606802224B4629463844CDE9000571
:104A0000042003F01FF80090F0B3204603F0D0FC20
:104A100059495046C9E90414009903F083F8701B02
:104A20000604360C06D024680027D5E72468002742
:104A3000002ED1D1079879198FB2408C1438404597
:104A40000298C0F30C0001DA40F4005000F0C2FFFD
:104A50000499C8800398143080B200F0BBFF049919
:104A6000002248805146049842810798089A436979
:104A70009847504603F07CFA0399A8EB010202998B
:104A80001FFA82F8594401E00DE009E088B2029073
:104A9000B8F100007FF47CAF71E7504603F068FA8C
:104AA0004FF0FF306BE7484600F00AFBF5E70000E7
:104AB0002E2E2F4D6964646C6577617265732F5477
:104AC000686972645F50617274792F4C7749502F16
:104AD0007372632F636F72652F697076342F6970FC
:104AE000345F667261672E63000000006970345F96
:104AF00066726167282920646F6573206E6F742069
:104B0000737570706F7274204950206F7074696F84
:104B10006E73000069705F6672616728293A204DE4
:104B20004620616C726561647920736574000000D1
:104B3000417373657274696F6E202225732220663B
:104B400061696C6564206174206C696E6520256400
:104B500020696E2025730A0074686973206E65658C
:104B600064732061207062756620696E206F6E65C7
:104B70002070696563652100A95600082DE9F05F82
:104B8000456806460F4604212878B1EB101F03D074
:104B9000304603F0EDF98DE000F00F004FF6FF71A5
:104BA00001EA8008688800F015FF04463089A042B9
:104BB00003D92146304603F02FFB71894145E7D3E5
:104BC0003089A042E4D3B8F1140FE1D3DFF848A153
:104BD0002969CAF81410C1F30312E9680E2ACAF849
:104BE000101014D0DFF834B13C464FF0010900BF7B
:104BF00094F82B00C00712D0616881B1DAF8140074
:104C0000884220D02146FFF777FEE0B907E097F809
:104C10002B00C0070FD0786868B13C4613E0B9F1AB
:104C2000000F0AD09AF814007F2804D0DBF8004067
:104C30004FF0000902E0002405E02468BC4200D1E6
:104C40002468002CD4D1DAF810003946FFF754FE5E
:104C500000289DD19AF81000D146C0F303100E2809
:104C600096D0002C94D0E88830F0C00005D03046B3
:104C700000F01EF906001DD07568C8F10001C9F8E2
:104C800008503046C9E900472A781207920EA9F861
:104C90000C2003F029FA687A012818D0062811D0D0
:104CA00011280AD0D9F814004F462146FFF724FEF8
:104CB00090B11FE00020BDE8F09F3946304608F073
:104CC00005FD1AE03946304605F058F915E0394639
:104CD0003046FFF78DFC10E0387DC0F303100E283E
:104CE00008D04146304603F002FA02213046756092
:104CF000FFF77AFC304603F03BF90021C9F80010B9
:104D0000C9F80410C9F80810A9F80C10C9F8101057
:104D1000C9F81410CEE700001C710020EC00002040
:104D2000FEB5DDE90954089E1AB109B10F6807B94B
:104D3000211D0096CDE9015400F002F8FEBD0000EF
:104D40002DE9F84FDDE90BA80546C089DDF828B04C
:104D50001F4601281646894606D02DA340F233325D
:104D600038A13BA0FEF736FA002E39D01421284690
:104D700003F0BAF918B16FF00100BDE8F88F688947
:104D80006C68142806D222A34FF458723AA130A0BE
:104D9000FEF720FA2772452084F809A031682161C6
:104DA000207084F801B0288900F014FE3E4F4FF0C7
:104DB000000A6080A4F806A0388800F00BFEA080EE
:104DC000B9F1000F388800F10100388005D0D9F81A
:104DD0000000E060A4F80AA006E034480068F8E7A4
:104DE00068686E4600690090B8F8220040B12989D1
:104DF000814205D9324641462846FFF795FDBCE77A
:104E0000D8F814304046324629469847B5E70000A6
:104E10002E2E2F4D6964646C6577617265732F5413
:104E2000686972645F50617274792F4C7749502FB2
:104E30007372632F636F72652F697076342F697098
:104E4000342E6300702D3E726566203D3D2031009A
:104E5000417373657274696F6E2022257322206618
:104E600061696C6564206174206C696E65202564DD
:104E700020696E2025730A00636865636B2074687F
:104E80006174206669727374207062756620636154
:104E90006E20686F6C64207374727563742069701F
:104EA0005F686472000000004E01002084E9000881
:104EB0002DE9F05F45688346287800F00F0005284B
:104EC0007DD1E88800F086FDC004070C688800F0FA
:104ED00081FD297801F00F01494200EB81001FFAA2
:104EE00080F8584602F0B6FE5D4C064620883044F5
:104EF0000A2809D93146284600F080FB00285ED0F8
:104F0000208830440A285AD8A14664684FF0000A25
:104F10000CE06069E968884207D1A0692969884284
:104F200003D1A089A988884203D02468002CF0D13D
:104F300006E02CB1E88800F04DFDC0041BD025E050
:104F4000042001F0EFFC04000AD13146284600F0AD
:104F500055FBB04233DB042001F0E4FC04007BD0BD
:104F60002021FBF70DFA0321E177D9F80410216025
:104F7000C9F8044004E0E08900F02CFDC00405D02D
:104F80001422294604F10800FBF7E1F9A87940F35F
:104F900040156D1C08D007EB080080B2B8425BD307
:104FA0004FF6EB71884257D82A465946204600F002
:104FB000CFF8411C50D0B9F80020324400E04BE05B
:104FC000A9F8002035B1A27F07EB0801A18342F0C8
:104FD0000102A27701283DD1A08B142204F108011F
:104FE0001430A0836068456828462E68FBF7AFF947
:104FF000A08B00F0EFFC01466980A5F806A06FF0D9
:105000001308A5F80AA0656809E0776841463046AC
:1050100003F06AF83146284602F084FD3E68002E0F
:10502000F3D1D9F804104E468C4205D1002105E099
:105030000868A04202D001460029F9D1204600F0BC
:10504000B7F9284602F006FE3188081A3080284653
:10505000BDE8F09F0020FBE7584602F089FFF9E722
:105060005001002070B50446134813E090F82B104F
:10507000CA070FD04A070DD543685BB1826825681F
:10508000134005EA02069E4214D0890702D4C16883
:105090008D420FD000680028E8D10848006840B170
:1050A00090F82B10CA0704D0490702D5416800299F
:1050B00000D1002070BD0000EC000020F0000020B6
:1050C00010B5040006D106A340F2AE2213A116A02B
:1050D000FEF780F82146BDE81040052001F0AEBB88
:1050E0002E2E2F4D6964646C6577617265732F5441
:1050F000686972645F50617274792F4C7749502FE0
:105100007372632F636F72652F697076342F6970C5
:10511000345F667261672E63000000007020213DDD
:10512000204E554C4C000000417373657274696FDA
:105130006E2022257322206661696C65642061748B
:10514000206C696E6520256420696E2025730A0035
:105150002DE9F0474C68002592460F4606464FF071
:105160000108608800F036FC217801F00F01494207
:1051700000EB8109E08800F02DFC7C68C00400226F
:10518000010C01EB0900226083B2A180E380726808
:1051900026E05068B0F804C0614515D222606DB1B8
:1051A000B5F806C061457BD38088834278D82F60EC
:1051B000A088844506D04FF0000803E08088834231
:1051C0006ED8776072B12DE06AD0C288914267D301
:1051D00025B1EA88624501D04FF000080268054613
:1051E000002AD6D1002D12D0E888A188884206D99D
:1051F00032A340F2AB1240A147A0FDF7EBFF2F60B6
:10520000E888A18888420DD04FF000080AE0706855
:10521000002806D029A340F2B31249A13EA0FDF711
:10522000D9FF7760BAF1000F02D1B07FC00732D04A
:10523000B8F1000F32D07268002A2FD050688088F1
:1052400000282BD12068214628B14468C888A1884D
:105250008842F7D022E0B8F1000F1FD032B917A36F
:105260004FF4EA7244A12CA0FDF7B4FF70684068C7
:10527000A04206D111A340F2D5123FA126A0FDF70E
:10528000A9FF206830B10DA340F2D7123EA122A0A1
:10529000FDF7A0FF0120BDE8F08701E00020FAE75C
:1052A000384602F0D7FC014640480288511A018076
:1052B000384602F05DFE4FF0FF30ECE72E2E2F4D0A
:1052C0006964646C6577617265732F546869726490
:1052D0005F50617274792F4C7749502F7372632F2E
:1052E000636F72652F697076342F6970345F6672F0
:1052F00061672E6300000000636865636B2066725F
:1053000061676D656E747320646F6E2774206F76AD
:1053100065726C6170000000417373657274696F2F
:105320006E2022257322206661696C656420617499
:10533000206C696E6520256420696E2025730A0043
:105340006E6F2070726576696F7573206672616723
:105350006D656E742C2074686973206D757374208C
:105360006265207468652066697273742066726174
:10537000676D656E7421000073616E6974792063D6
:105380006865636B0000000076616C696461746538
:105390005F646174616772616D3A6E6578745F70A5
:1053A000627566213D4E554C4C00000050010020B6
:1053B00070B504460C480D464168A14202D12168EF
:1053C00041600AE0002D06D108A340F2451216A163
:1053D0001CA0FDF7FFFE206828602146BDE8704054
:1053E000042001F02BBA0000500100202E2E2F4D7A
:1053F0006964646C6577617265732F54686972645F
:105400005F50617274792F4C7749502F7372632FFC
:10541000636F72652F697076342F6970345F6672BE
:1054200061672E630000000073616E697479206308
:105430006865636B206C696E6B6564206C6973745E
:1054400000000000417373657274696F6E2022253D
:105450007322206661696C6564206174206C696EDA
:105460006520256420696E2025730A002DE9F04728
:1054700005460F46A9424FF0000405D1AB222EA3EA
:105480003CA13FA0FDF7A6FE002F08D03868A84237
:1054900005D0AD2228A344A139A0FDF79BFE6E687C
:1054A0004FF480387068818800291AD1006814226E
:1054B000686005F108017068FAF749FF012130467C
:1054C000FFF710FA304602F0C5FB4045044605D30D
:1054D000BC2219A339A12AA0FDF77CFE304602F0B8
:1054E00047FD6E6812E07068B1460668484602F0F3
:1054F000B1FB0444444505D3CC220FA32FA120A027
:10550000FDF768FEA4B2484602F032FD002EEAD153
:1055100039462846FFF74CFF304D2888A04205D277
:10552000D22205A32EA116A0FDF754FE2888001B49
:1055300028802046BDE8F0872E2E2F4D6964646CCC
:105540006577617265732F54686972645F50617228
:1055500074792F4C7749502F7372632F636F726584
:105560002F697076342F6970345F667261672E63BD
:10557000000000007072657620213D206970720085
:10558000417373657274696F6E20222573222066E1
:1055900061696C6564206174206C696E65202564A6
:1055A00020696E2025730A00707265762D3E6E6547
:1055B0007874203D3D20697072000000706275664D
:1055C000735F6672656564202B20636C656E203C9A
:1055D0003D203078666666660000000050010020BD
:1055E00069705F72656173735F70627566636F7512
:1055F0006E74203E3D20636C656E00002DE9F0471F
:105600001D4F00248946064600221346114678683D
:10561000154622E0D0F814C0D6F80C80C4450BD152
:10562000D0F818C0D6F81080C44505D1B0F80CC029
:10563000B6F80480C44509D06D1C2AB190F81FC08B
:1056400092F81F80C44501D802461946D0F800C020
:10565000BCF1000F00D0034660460028DAD11AB131
:105660001046FFF703FF04444C4501DA012DCBDC63
:105670002046BDE8F087000050010020094870B5C1
:10568000002544680BE0E07F20B1401EE07725460E
:10569000246804E0204624682946FFF7E7FE002C32
:1056A000F1D170BD5001002010B5040006D108A34F
:1056B0004FF42E7215A118A0FDF78CFD606908B19A
:1056C00002F056FC2046BDE81040FFF7F9BC000090
:1056D0002E2E2F4D6964646C6577617265732F544B
:1056E000686972645F50617274792F4C7749502FEA
:1056F0007372632F636F72652F697076342F6970D0
:10570000345F667261672E63000000007063722070
:10571000213D204E554C4C00417373657274696F86
:105720006E2022257322206661696C656420617495
:10573000206C696E6520256420696E2025730A003F
:1057400070B5404E8AB004463F49012000250095BF
:105750008022C6E900103582E1238DF80450C1058E
:105760008DF8052001AA8DF806308DF808508DF8C7
:1057700007508DF80950C6E90520C6E907513046A3
:10578000FBF7DAF928B994F82B0040F0040084F80C
:105790002B002E4A04232E492A48FBF709F92C4AEC
:1057A000042328488032A2F58071FBF7C7F8062150
:1057B00084F82410716940F2DC50097884F82510CF
:1057C0007169497884F826107169897884F82710FE
:1057D0007169C97884F828107169097984F82910E9
:1057E0007169497984F82A100121608494F82B00AA
:1057F00040F00A0084F82B0008A8089501F0CCFEC0
:1058000014491422086003A81349FAF7A0FD03A85D
:10581000214601F049FF0B48FBF71EFB09480B210D
:105820006A46FBF7CFFA00980B2140F00B020548BF
:105830000092FBF7DDFB03480B216A46FBF7C2FA37
:105840000AB070BD3432002000800240641A00208B
:10585000140200201C00002008E800082DE9F84F81
:105860000020044600902D48FBF7E5F810B1002019
:10587000BDE8F88F2948818FD0F840900904090CC1
:1058800031D00322042001F027FF009058B32348B1
:1058900040F2F45B009DD0F8308000276E8913E061
:1058A0006B68A4F2F4504242D81909EB0401FAF7EC
:1058B0004EFDD8F80C003F1B0024AAF2F456804697
:1058C000D0F8089007F2F45706EB040ADA45E7D857
:1058D0006A6809EB0401D0193246FAF738FD2D68E1
:1058E0003444002DD9D10D480022016B05E00B682E
:1058F00043F000430B60C968521C836B9342F6D897
:1059000000218163006800F580504269120602D5CB
:105910008022426181600098AAE7000034320020B2
:105920002DE9F05F29484FF0000B0D465C46C66A32
:10593000D6F808A035E03068002811DB6F894FF0F9
:1059400000081DE06B68A4F2F45042420AEB040028
:1059500003EB0801FAF7FBFCF6683068002802DA6E
:105960006FF0070024E0D6F808A0A8EB0401ABEB29
:10597000040001F2F4580024A9F2F45700F2F45B99
:1059800040F2F45107EB04098945DBD86A680AEB59
:10599000040002EB08013A46FAF7D9FC2D683C44B2
:1059A000BB44002DC7D109485946FBF797FA0020A0
:1059B0000649096801F580514A69920603D52023FA
:1059C0004B6100224A60BDE8F09F000034320020A5
:1059D00000BA704740BA704710B503F003FC00F0FE
:1059E000EFFC00F079FF01F047FC07F06DFE04F0DA
:1059F000C3FABDE8104003F023BD70B5044600684B
:105A00006FF00C0590F90800A84214DDFA2020710F
:105A10002168486880B1097801F0F001102906D0AA
:105A2000202909D1A289A16807F0F2FD03E0A2892B
:105A3000A16803F093FE2071206800280CD003F0C9
:105A400093FB216891F90820AA4201DD22790A72AC
:105A5000BDE8704003F094BB70BD00002DE9F04735
:105A600004008A4606D16FA340F243327AA17EA099
:105A7000FDF7B0FB20780121B1EB101F06D069A320
:105A80004FF4517282A178A0FDF7A4FB607804283E
:105A900006D064A340F2453285A173A0FDF79AFBBE
:105AA000606830B95FA340F246328AA16EA0FDF76C
:105AB00091FBA06A30B95BA340F247328AA16AA089
:105AC000FDF788FBA16AD4F80480087A032800F067
:105AD000010900F002070FD0B9F1000F07D098F8C4
